:100000000C9463000C9478000C9478000C947800A5
:100010000C9478000C9478000C9478000C94780080
:100020000C9478000C9478000C9478000C94780070
:100030000C94D6010C9478000C9478000C94780001
:100040000C9478000C9478000C9478000C94780050
:100050000C9478000C9478000C9478000C94780040
:100060000C9478000C947800020202040202020848
:10007000020202020202020402040A020202010354
:10008000010302020202020202040202020202024E
:1000900002020202020C042E292E374A3E3B373E52
:1000A000373E4A2E292E374A3E4A251F1D1F1B1F49
:1000B0001B1F25292E292E2925292E373E373E4A5A
:1000C0003E4A535E700011241FBECFEFD8E0DEBF62
:1000D000CDBF11E0A0E0B1E0E8E5F4E002C005909A
:1000E0000D92A230B107D9F70E94E4010C942A02C4
:1000F0000C940000CF92DF92EF92FF920F931F9328
:10010000FC0161875387428732832183F482E38233
:1001100016830583D086C7821486168615861082BC
:100120006130E9F090F06230A9F51092B0001092C1
:10013000B1008091B00082608093B0008091B000E7
:1001400080648093B000239A25C0569A14BC15BCD5
:1001500084B5826084BD84B5806484BD1BC08091F9
:100160006F00846080936F007894109281001092E9
:100170008000809181008860809381008091800060
:10018000806480938000219A8FEF90E090938B00A1
:1001900080938A001F910F91FF90EF90DF90CF9096
:1001A0000895FC018185813069F040F0823089F446
:1001B0008091B100887F8093B10009C085B5887FA8
:1001C00085BD05C080918100887F8093810081E09A
:1001D000089580E00895FC018185813049F120F087
:1001E000823009F44BC071C08285938580349105BB
:1001F000C1F048F48130910589F0089709F065C095
:1002000085B5826013C0811521E0920769F08115E0
:10021000944009F05AC085B5856008C085B58160F5
:1002200005C085B5836002C085B5846085BD4DC0BD
:100230008285938580349105B9F050F48130910521
:1002400079F0089709F041C080918100826013C065
:10025000811521E0920761F08115944049F035C085
:1002600080918100816007C080918100836003C01C
:100270008091810084608093810027C0828593856E
:1002800080349105C9F048F48130910589F00897D0
:10029000E1F48091B100826016C0811521E09207DF
:1002A00079F08115944089F48091B10087600BC08A
:1002B0008091B100816007C08091B100846003C06B
:1002C0008091B10086608093B10080E008951F9313
:1002D000CF93DF93EC018881813009F45CC08C8579
:1002E000811155C08D859E852B813C818217930796
:1002F00040F0CE010E94D1001E861D8681E08883D9
:100300004BC0ED81FE81E80FF91FE491EC87E98194
:10031000FA81E80FF91F1491112369F18F851817DD
:1003200061F0CE010E94EB0089858130E1F0C8F0D8
:100330008230F9F41093B3001CC0CE010E94D100AA
:1003400080E090E020910001309101018217930735
:1003500040F7EFE9FFE03197F1F700C000000196A8
:10036000F1CF17BD06C0812F90E090938900809354
:1003700088001F8703C0CE010E94D1008C85815068
:100380008C878D859E8501969E878D8702C08150C2
:100390008C8781E001C080E0DF91CF911F910895AB
:1003A000FC0181E09081911180E008951F920F92ED
:1003B0000FB60F92112410928500109284000F90B6
:1003C0000FBE0F901F901895CF92DF92EF92FF9281
:1003D0000F931F93CF93DF93CDB7DEB760970FB620
:1003E000F894DEBF0FBECDBF8FE2C82ED12C9FE2A6
:1003F000E92EF12C08E610E027E930E040E051E07A
:1004000060E0CE0101960E947A00CE0101960E9422
:10041000D001882371F0CE0101960E9467012FEF71
:1004200087EE93E0215080409040E1F700C000004B
:10043000ECCF80E090E060960FB6F894DEBF0FBE80
:10044000CDBFDF91CF911F910F91FF90EF90DF9083
:08045000CF900895F894FFCF4E
:020458000A0098
:00000001FF
