:100000000C949C010C94B1010C94B1010C94B101BD
:100010000C94B1010C94B1010C94B1010C94B10198
:100020000C94B1010C94B1010C94B1010C94B10188
:100030000C940F030C94B1010C94B1010C94B10118
:100040000C94B1010C94B1010C94B1010C94B10168
:100050000C94B1010C94B1010C94B1010C94B10158
:100060000C94B1010C94B1010101010101010101E4
:10007000010101010201010102010101020101016D
:10008000020101010101010501010101010101015B
:10009000010105010101010101020101010201014A
:1000A000010201010101010101010101050101013B
:1000B000010101010101010105010101010101012C
:1000C000010101010101010102010201020201011C
:1000D0000101010101010101010101010101010110
:1000E00001010101010101010101010101010102FF
:1000F00001020102010101010101010101010101EE
:1001000001010101010101010101010101010101DF
:1001100001010101010201020102010101010101CC
:1001200001010101010101010101010101010101BF
:1001300001010101010101010101020102010201AC
:10014000010101010101010101010101010101019F
:10015000010101010101010201010102010101028C
:10016000010101010101010101010501010101017B
:100170000101010101070101010102010101020167
:100180000101020101010201010101010105010159
:100190000201010101010101050101010101020149
:1001A0000202020102010202020201030103010331
:1001B0000201010102010202020101020102020226
:1001C0000201030103010302010101010101010414
:1001D00053375337533753375314141414120F141F
:1001E000150F121212100D12140D100A120A150D0D
:1001F0001F1225140D100A120A150D1F12250A0AC6
:100200000A0A08070A0A070808080706080A06076C
:100210000408170A061F0825070A06070408170A14
:10022000061F0825100D170D0D170D0A170B0F0DC2
:100230001B0C1F101B0F1A0F0F1A0F0F1A0F0B1A80
:100240000C101B0B08170A0D170717070B06061BC8
:100250000621040634070627061F071B07071A078F
:10026000150717051A0607170D1B0B0A1B1025107B
:100270000E210D0D1B0D170A170B1A0D0D1F0C1F4C
:10028000101B0F0F1A0F140F170B1A0C101B0B0853
:10029000170A0D1B0717071F0B06061B062104066E
:1002A000070627061F071B07071A071A071A051A4A
:1002B00006071408250706220C1F0B0A1414141431
:1002C000120F14150F121212100D12140D100A1223
:1002D0000A150D1F1225140D100A120A150D530AC6
:1002E0000A0A0A08070A0A070808080706070A068A
:1002F000070408050A061F08250A06070408050A58
:10030000061F082507370D100A0F14370D100A0FA6
:10031000140A103715371437171F14370D100A0F2A
:10032000140A370D100A0F140A103715371437172F
:100330001F14370D530D000011241FBECFEFD8E05E
:10034000DEBFCDBF11E0A0E0B1E0EEECF6E002C010
:1003500005900D92A230B107D9F70E941D030C94AD
:1003600065030C940000CF92DF92EF92FF920F93FF
:100370001F93FC0161875387428732832183F48274
:10038000E38216830583D086C78214861686158677
:1003900010826130E9F090F06230A9F51092B0005F
:1003A0001092B1008091B00082608093B000809183
:1003B000B00080648093B000239A25C0569A14BC84
:1003C00015BC84B5826084BD84B5806484BD1BC0C7
:1003D00080916F00846080936F0078941092810008
:1003E00010928000809181008860809381008091CC
:1003F0008000806480938000219A8FEF90E090933A
:100400008B0080938A001F910F91FF90EF90DF90F7
:10041000CF900895FC018185813069F040F08230F1
:1004200089F48091B100887F8093B10009C085B5BF
:10043000887F85BD05C080918100887F8093810081
:1004400081E0089580E00895FC018185813049F1C3
:1004500020F0823009F44BC071C0828593858034CE
:100460009105C1F048F48130910589F0089709F0B1
:1004700065C085B5826013C0811521E0920769F0DF
:100480008115944009F05AC085B5856008C085B5CE
:10049000816005C085B5836002C085B5846085BD77
:1004A0004DC08285938580349105B9F050F4813038
:1004B000910579F0089709F041C080918100826030
:1004C00013C0811521E0920761F08115944049F035
:1004D00035C080918100816007C080918100836078
:1004E00003C08091810084608093810027C0828551
:1004F000938580349105C9F048F48130910589F0E5
:100500000897E1F48091B100826016C0811521E066
:10051000920779F08115944089F48091B100876049
:100520000BC08091B100816007C08091B1008460F0
:1005300003C08091B10086608093B10080E008958F
:100540001F93CF93DF93EC018881813009F45CC065
:100550008C85811155C08D859E852B813C818217AC
:10056000930740F0CE010E940A021E861D8681E09C
:1005700088834BC0ED81FE81E80FF91FE491EC8781
:10058000E981FA81E80FF91F1491112369F18F8530
:10059000181761F0CE010E94240289858130E1F0B4
:1005A000C8F08230F9F41093B3001CC0CE010E9451
:1005B0000A0280E090E02091000130910101821751
:1005C000930740F7EFE9FFE03197F1F700C0000033
:1005D0000196F1CF17BD06C0812F90E0909389005E
:1005E000809388001F8703C0CE010E940A028C8579
:1005F00081508C878D859E8501969E878D8702C050
:1006000081508C8781E001C080E0DF91CF911F9104
:100610000895FC0181E09081911180E008951F927E
:100620000F920FB60F921124109285001092840041
:100630000F900FBE0F901F901895CF92DF92EF9200
:10064000FF920F931F93CF93DF93CDB7DEB76097E1
:100650000FB6F894DEBF0FBECDBF88E6C82EDD24EE
:10066000D39498E6E92EFF24F39408E610E020EDF9
:1006700031E040E054E060E0CE0101960E94B30119
:10068000CE0101960E940903882371F0CE010196E4
:100690000E94A0022FEF8DEB9AE021508040904005
:1006A000E1F700C00000ECCF80E090E060960FB66C
:1006B000F894DEBF0FBECDBFDF91CF911F910F9198
:0E06C000FF90EF90DF90CF900895F894FFCF59
:0206CE000A0020
:00000001FF
